:040000008A110B282E
:10000800FE00030EF6000A08F7008A110D288A116F
:10001800F728831603138C1E5A2883128C1E5A281D
:10002800A008031D23281A08F03A031D2028802061
:100038008A11A001A00A5A2880208A115A28A108EA
:10004800031D2B281A08F000A101A10A5A28A208AA
:10005800031D33281A08F100A201A20A5A28A3088E
:10006800031D3B281A08F200A301A30A5A28A40872
:10007800031D43281A08F300A401A40A5A28A50856
:10008800031D4B281A08F400A501A50A5A28A6083A
:10009800031D55281A080A3A031D2028A601A60A96
:1000A8005A281A08F80078088F208A110B198B1E15
:1000B800792803108312861D0314031C67288312F2
:1000C800031386156A288312031386110310861CEE
:1000D8000314031C732883120313861476288312CF
:1000E800031386103D300B11810077088A00760EC5
:1000F8008300FE0E7E0E0900F001F101F201F3010A
:10010800F40183120313A001A101A201A301A40118
:10011800A501A6010800F5000C1E90287508990095
:100128000800700B992885149D287008023A031955
:100138008510710BA1280514A5287108023A031926
:100148000510720BA9280617AD287208023A031980
:100158000613730BB1280616B5287308023A03195B
:100168000612740BB9288B1608007408023A031D8E
:1001780008008B12861008008A1106218A118A113C
:1001880022218A118312861786158A112B218A113A
:100198008A1133218A1183122603031DCF288A115D
:1001A80095208A118A11DD208A118A1115218A1158
:1001B800CF28F030F1208A117008F1208A117108D7
:1001C800F1208A117208F1208A117308F1208A112E
:1001D8007408F1208A110D30F128F9000C1EF2285C
:1001E800790899000800F001F101F201F301F40126
:1001F800A001A101A201A301A401A501A6018301F7
:100208008A11C0288316850124308600831285014F
:10021800860183169B0183129F0183169F01811714
:100228000800F001F101F201F301F401A001A101BC
:10023800A201A301A401A501A60108001930990093
:100248009030831298002430831698000800873075
:10025800831681003D300B118312810008008B1238
:0A02680083168C168B170B17080085
:04400E0029FFFEFF89
:00000001FF
