:040000008A110D282C
:10000800FE00030EFA000408FB000A08FC008A152B
:10001800172F8A15862D8312EC00DC208A115508CB
:10002800E6005608E7005708E80056208A115508E8
:10003800E9005608EA005708EB005B238A11792388
:100048008A112808B7002908B8002A08B9006908E1
:10005800C6006A08C7006B08C8006608C9006708B8
:10006800CA006808CB0088238A114608B4004708EC
:10007800B5004808B6005E238A113408BA0035086E
:10008800BB003608BC0003228A113708ED00380887
:10009800EE003908EF006D30A0000830A100A20181
:1000A8006C089F2B831637088312E200E101831640
:1000B80036088312E1042C238A112108A90020089C
:1000C800A800F3218A112808D8002908D9002A088D
:1000D800DA0003238A112108A9002008A800F321C7
:1000E8008A112808DB002908DC002A08DD005808E6
:1000F800C6005908C7005A08C800A030B701B800A0
:100108004030B9006208A9006108A800AA228A1133
:100118002808BA002908BB002A08BC0003228A1153
:100128003708C9003808CA003908CB008B218A1162
:100138004608DE004708DF004808E0005B08C60004
:100148005C08C7005D08C8005E08C9005F08CA00EF
:100158006008CB008B218A114608E3004708E400B9
:100168004808E5006308A0006408A1006508A2002B
:10017800A301A401A5017E228A110318D528803085
:10018800B701B800BF30B9006308BA006408BB0003
:100198006508BC0003223708E3003808E400390882
:1001A800E5006308D5006408D6006508D700080094
:1001B800831634088312E200E101831633088312A0
:1001C800E10462218A112108A9002008A800F3216E
:1001D8008A112808D8002908D9002A08DA006221DB
:1001E8008A112108A9002008A800F3218A112808EB
:1001F800DB002908DC002A08DD005808C600590879
:10020800C7005A08C800A030B701B8004030B9008C
:100218006208A9006108A800AA228A112808BA0061
:100228002908BB002A08BC0003228A113708C90024
:100238003808CA003908CB008B218A114608DE002D
:100248004708DF004808E0005B08C6005C08C700F4
:100258005D08C8005E08C9005F08CA006008CB00D6
:100268008B218A114608E3004708E4004808E500A6
:100278006308A0006408A1006508A200A301A40106
:10028800A5017E228A1103185B298030B701B800C6
:10029800BF30B9006308BA006408BB006508BC0039
:1002A80003223708E3003808E4003908E50063084A
:1002B800D5006408D6006508D700080083163508FD
:1002C8008312A2000330A2057C29A001A00AA10183
:1002D80008000230A000A10108000430A000A1011C
:1002E80008000830A000A1010800A001A101080031
:1002F8002208003A03196929013A03196D29033ABA
:1003080003197129013A031975297929080049083F
:10031800CC004A08CD004B08CE0003104D0D4E0D01
:10032800D300D308031D9C29C601C701C8010800D2
:100338004608CC004708CD004808CE0003104D0DF4
:100348004E0DD400D408031DAD29C601C701C8014C
:1003580008008930D001D101D2015407CC00D30262
:100368004B08D4004808D4068030D4051830CA1782
:10037800CB01C717C801CF000310D00DD10DD20D86
:1003880048084B02031DCE2947084A02031DCE29FF
:1003980046084902031CDC294608C9024708031C11
:1003A800470FCA024808031C480ACB02501403101E
:1003B800C90DCA0DCB0DCF0BC0295008A00051089C
:1003C800A1005208A2005308A3005408A400C522A3
:1003D8002008C6002108C7002208C800080028080D
:1003E800A0002908A1008E30A201A300A401C52203
:1003F8002008A8002108A9002208AA000800370838
:10040800BD003808BE003908BF0003103E0D3F0D7F
:10041800C000C008031D142AB701B801B9010800BB
:100428003A08BD003B08BE003C08BF0003103E0D63
:100438003F0DC500C508031D252AB701B801B9013C
:10044800080045087B3EC0073908C5003C08C506BA
:100458008030C5050730B817BB17BC01C101C20100
:10046800C301C400371C462A3A08C1073B080311D8
:1004780003183B0A031DC2073C08031103183C0A72
:10048800031DC3070310B90CB80CB70C0310BA0D41
:10049800BB0DBC0DC40B362A0930C400371C622AB8
:1004A8003A08C1073B08031103183B0A031DC2079A
:1004B8003C08031103183C0A031DC3070310B90CB9
:1004C800B80CB70C0310C30CC20CC10CC40B522AD5
:1004D8004108A0004208A1004308A2004008A30068
:1004E8004508A400C5222008B7002108B800220842
:1004F800B9000800A21F8D2A2008003CA00021088E
:10050800031C210F003CA1002208031C220F803C81
:10051800A200A51F9C2A2308003CA3002408031C52
:10052800240F003CA4002508031C250F803CA500CF
:100538008030A206A50625082202031D080024080B
:100548002102031D0800230820020800AB01A91F8F
:10055800B42AA809A909A80A0319A90AAB01AB0A70
:100568002808A0002908A1008E30A201A3002B08AA
:10057800A400C5222008A8002108A9002208AA0072
:10058800080023080319CD2A220821042004031D8A
:10059800D62AA001A101A2010800A30A0310A20CF7
:1005A800A10CA00CFE3022050319E52AD12AA30AC2
:1005B800A00A0319A10A0319A20A0310A20CA10C8C
:1005C800A00CFF3022050319EF2ADB2AA30303102E
:1005D800A00DA10DA20DA11FEA2A231CA11303102F
:1005E800A30C2308A700A601A5012508A004260836
:1005F800A1042708A2042408031DA21708008316D3
:1006080038088312A2000330A2051D2BA001A00AFE
:10061800A10108000230A000A10108000430A000D8
:10062800A10108000830A000A1010800A001A10153
:1006380008002208003A03190A2B013A03190E2B65
:10064800033A0319122B013A0319162B1A2B080027
:10065800831638088312A2000310A20C0310A20C00
:100668002208A3000330A3054C2B0830A001A100E9
:1006780008002030A001A10008004030A001A1001E
:1006880008008030A001A1000800A001A101080015
:100698002308003A0319392B013A03193D2B033A71
:1006A8000319412B013A0319452B492B0800063041
:1006B8008A115A2D3408A0003508A1003608A20076
:1006C800A301A401A5017E228A1103180800340899
:1006D800A0003508A1003608A200BB232008B400FA
:1006E8002108B5002208B6000800AB00A0008E3033
:1006F800A101A201A300A401C5222008A800210885
:10070800A9002208AA0008008030C8064908A800E5
:100718004A08A9004B08AA004608AB004708AC00E5
:100728004808AD008A1556262808C6002908C700BB
:100738002A08C8000800A4002008A6002408A5006C
:100748000130A1020030031CA203A202210A0319EE
:10075800220A031908002608840083130008A3004E
:100768002508840023088000A60AA50AA42B2208CD
:1007780021042004031908008030A206080083160B
:10078800BE08031DDC2B3E08C2004008C400200838
:10079800C5002108C6002208C7002308C80024088D
:1007A800C9002508CA002608CB002708CC00080085
:1007B8003E08113A031D392C09258A11342C572576
:1007C8008A11342C09258A118316AE01AF01AA01BA
:1007D800AA0AAB01342C2008CE0007300310CE0D36
:1007E800FF3E031DF22B80304E05CF0031087F39C4
:1007F800162C2008CE0007300310CE0DFF3E031D37
:10080800002C80304E05CF0032087F39232C200879
:10081800CE000C300310CE0D0310CE0D4E05CF00C8
:100828003108F3394F042B2C2008CE000C3003106C
:10083800CE0D0310CE0D4E05CF003208F3394F040C
:10084800332C03302005CE003108FC394E04B100AA
:10085800342C03302005CE003208FC394E04B20097
:1008680083163E08C200C40108003E08123A031964
:10087800E32B3E08353A0319E62B3E08133A0319D1
:10088800EF2B3E08143A0319FD2B3E08153A0319BD
:100898000B2C3E08163A0319182C3E08173A031970
:1008A800252C3E08183A03192D2C3E08213A031D21
:1008B800682C3E08C2000330C4003408C500330861
:1008C800C6003508C70008003E08223A031D772CE9
:1008D8003E08C2000330C4003708C5003608C60009
:1008E8003808C70008003E08233A031D842C3E0838
:1008F800C2000230C4003B08C5003908C600080021
:100908003E08243A031D9D2C3E08C2000830C4004E
:100918003408C5003308C6003508C7003708C800C2
:100928003608C9003808CA003B08CB003908CC0093
:1009380008003E08403A031DAC2C3E08C2002008BF
:10094800692583160313C401C40A2008C5000800DA
:100958003E08413A031DB92C3E08C200C401C40A2E
:100968008A115B238316C50008003E08423A031D1E
:10097800C42C3E08C2000830C400C5308A110F28B4
:100988003E08313A031DD82C21088312A000831693
:1009980020083C2503133E08C2000230C40020088A
:1009A800C5002108C60008003E08323A031DE72C9E
:1009B8003E08C2000230C4002008C50020085A259D
:1009C8008316C60008003E08333A031DFF2C400872
:1009D800023A031D08002008D0002108D100831224
:1009E800A200831650080C258A11831603133E08AB
:1009F800C2004008D22C3E08343A031D342C3E086D
:100A0800C2000630C400C530712D831206140800D8
:100A18008312A3005730A00000303C258A11000043
:100A2800483083120313A00001303C258A110000CE
:100A3800533083120313A00002303C258A110000B2
:100A4800453083120313A00003303C258A110000AF
:100A5800831203132308A00004303C258A110000E8
:100A6800831203132208A00005303C25000008006B
:100A78008312A100831603178C183E2D83120313CB
:100A8800210803178D000313200803178C00831611
:100A980055308C130C158D00AA308D008C148C18D1
:100AA800532D0C1108008312061008008312A000B1
:100AB800200803178D0083168C130C140C18622D54
:100AC80083120C080313A10008008312A200220855
:100AD800A00006303C25000008008312A300A401F2
:100AE80024082307A200840024085A258A118313A6
:100AF80080000630A40A240203180800742D831607
:100B08000D30061286148312A100A10B892D8316BD
:100B18000330031306168312A100A10B912D003098
:100B28008312031386180130A20083160612832647
:100B38008A11003A031DFF3422080800FB258A1198
:100B48009230E2258A1183163208E2258A11152689
:100B58008A11FB258A119330E2258A110130EA2592
:100B68008A118316B7000130EA258A118316B60068
:100B78000030EA258A118316B800152EFB258A1144
:100B88009030E2258A1183163108E2258A1115264C
:100B98008A11FB258A119130E2258A110130EA2554
:100BA8008A118316B4000130EA258A118316B3002E
:100BB8000030EA258A118316B500152E8312A40089
:100BC80041268A11003A031DFF34832D8312A600A3
:100BD8008F268A11A400A501240A0319250A0319DE
:100BE800FF342608B82683120313240808000330AC
:100BF80086148312A000A00BFF2D83160D3003135B
:100C080006168312A000A00B072E83160D300313BF
:100C180086108312A000A00B0F2E83160313061252
:100C2800080083160D3006128312A000A00B1A2E9E
:100C380083160D30031386108312A000A00B222EFA
:100C480083160330031306168312A000A00B2A2E66
:100C580083160D30031306168312A000A00B322E44
:100C680083161030031386148312A000A00B3A2EAB
:100C780064008316031386140800A2000730A3003B
:100C88008316061283122208A100230A4D2E031090
:100C9800A10CFF3E031D4B2E211C562E8316031359
:100CA8008614592E83160313861083122208A10076
:100CB800230A602E0310A10CFF3E031D5E2E211C8B
:100CC800682E831686146A2E8316861003308312C4
:100CD800A100A10B6D2E83160313061683268A1115
:100CE800003A031D01340D30A100A10B792E8316A3
:100CF800031306128312A303A31B0034442E83128A
:100D0800061A00340330A000A00B882E83120313A8
:100D1800061E01340034A201A30183161030061206
:100D28008312A100A10B962E640083160313861468
:100D3800061683268A11003A031DFF340D30A100E0
:100D4800A10BA42E8312003003130310A20D8618E2
:100D58000130A2048316061283120830A30A230264
:100D6800031C912E22080800A10083160612831284
:100D780021080319C22E83168610C42E83168614E2
:100D880003308312A000A00BC72E83160D30031367
:100D980006168312A000A00BCF2E08006B278A111D
:100DA8000038031D00344D30A400A5012508240493
:100DB8000319E52E0130A4020030031CA503A50287
:100DC800DA2ECC302F278A1144302F2701346B2795
:100DD8008A110038031D0C2F4D30A400A5012508E9
:100DE80024040319FE2E0130A4020030031CA503BD
:100DF800A502F32ECC302F278A11BE302F278A1157
:100E0800A4278A118316BA00A4278316BC000800F9
:100E18008316BA01BC0108006B278A110038031D2C
:100E280008004D30A400A501250824040319212F2A
:100E38000130A402031CA503182FCC302F278A11D8
:100E48004E302F278A1100302F278A1100302F2784
:100E58008A117F302F2FA000A101201C4D2F83164F
:100E680005108312051000000000000000000000BB
:100E7800000083160530031305148312A200A30192
:100E8800230822040319612F0130A202031CA303C3
:100E9800442F83160510831205300510A200A30104
:100EA8002308220403195D2F0130A202031CA303A7
:100EB800542F831605140000000083120830031312
:100EC8000310A00CA10A210203180800312F831671
:100ED8000510831243300510A100A2012208210445
:100EE80003197D2F0130A1020030031CA203A202C6
:100EF800722F8316063005148312A100A20122085E
:100F0800210403198E2F0130A1020030031CA20313
:100F1800A202832F0518922FA001942FA001A00AE6
:100F28001F30A100A201220821040319A22F0130B9
:100F3800A1020030031CA203A202972F2008080078
:100F48008312A201A301A30A0310A20C83160510A1
:100F58008312051000000000831603130514000017
:100F680000000000000000000000831203130518B1
:100F7800A2170430A000A101210820040319C92FD9
:100F88000130A002031CA103C02F0930A30A2302C9
:100F9800031CA92F220808008316BE01C001BF0147
:100FA800B001083030020318E02F3008A03E84005A
:100FB80083138001B00AD52FBD0156107D107D1115
:100FC8007D12FD11FD10FD1208008316A801A9016C
:100FD8008312210883162902031DF62F8312200885
:100FE8008316280203180800A80A0319A90AEC2F77
:020FF8000800EF
:101AFC0064008001840A04060319003404067F2D57
:101B0C00FD018316D6018313A0308400CE308A15D4
:101B1C007E2583018A15DA2D901090161012DC3078
:101B2C008E000B308F000C108B170B1710148316B4
:101B3C000C14AE01AF01AA01AB01080083164D08CD
:101B4C0042064406403AC1004030D3258A1583161C
:101B5C004D08D3258A1583164208D3258A1583167A
:101B6C004408D3258A158316C3014408430203187D
:101B7C00CE2D4308C53E840083130008D3258A1557
:101B8C0083164308C53E84000008C106C30ABB2D5A
:101B9C004108D3258A150A30D32D8312A0000C1EC0
:101BAC00D52D200899000800FF3083168500F630EB
:101BBC00860083128501860183169B0183129F0187
:101BCC0083169F01831297017F3095009600313068
:101BDC0090007F309200D730831692001930061592
:101BEC008616990090308312980024308316980042
:101BFC00F030831294050B30940420309416141694
:101C0C0083168C0083128C018D01C0308B008A11DD
:101C1C00D0278A150C30CD01B100B2008A111027E3
:101C2C008A1583168613831286138A1592258A15B4
:101C3C008312981C232E18121816FD1E2E2E8A1194
:101C4C00C3238A158A15A4258A158A11D0278A15CB
:101C5C008316AC0A0319AD0AC3302D025030031998
:101C6C002C02031C1E2EAC01AD018A11C2258A1553
:101C7C0064308312A000A1018A11E9278A158A1108
:101C8C00A2258A158A11D2268A15013A031D1E2E09
:101C9C008A11EB268A153C08BB003A08B9001E2EA7
:101CAC002808AE002908AF002A08B00003102F0D39
:101CBC00300DB3002B08AE002C08AF002D08B0007F
:101CCC0003102F0D300DB20033080319792E320892
:101CDC00330232080318812EAE003308AE021930DD
:101CEC002E02031C802E2B08A8002C08A9002D08FE
:101CFC00AA0008003208031908003308320203183E
:101D0C008F2E3308AE003208AE0219302E020318A3
:101D1C0008000630B100AA1BB117AD1B3117A9176B
:101D2C00AA01AC17AD01320833020318B62E03100A
:101D3C00AB0DAC0DAD0DB203320833060319B12E49
:101D4C00B103310807390319B12E9D2E0310AA0CCB
:101D5C00A90CA80CB30A330832060319D22EAC2EE8
:101D6C00330832020318D22E0310A80DA90DAA0DA8
:101D7C00B303320833060319CE2EB10331080739E9
:101D8C000319CE2EBA2E0310AD0CAC0CAB0CB20A50
:101D9C0033083206031DC92EB11FDD2EFF30A806F5
:101DAC00A906AA06A80A0319A90A0319AA0A311F27
:101DBC00E82EFF30AB06AC06AD06AB0A0319AC0A35
:101DCC000319AD0AB1012808AB0729080311031840
:101DDC00290A031DAC072A08031103182A0A031D3C
:101DEC00AD07AD1F042FFF30AB06AC06AD06AB0A3A
:101DFC000319AC0A0319AD0AB101B10A2B08A000F2
:101E0C002C08A1002D08A2003308A3003108A4005F
:101E1C008A11C5222008A8002108A9002208AA00BE
:101E2C000800831203138C1E8F2F831656182C2F29
:101E3C0083121A08403A031D292FC2278A154030F5
:101E4C00BD005614B92FC2278A15B92F7D18382F0B
:101E5C0083121A0883164D06031D292F4D08BD0643
:101E6C007D14B92F7D19412F83121A088316BE00D9
:101E7C00BD067D15B92F7D1A532F83121A088316B0
:101E8C00C000BD06C008031D4D2FFD15512F093094
:101E9C0040020318292F7D16B92FFD19792F3F0801
:101EAC00A03E840083121A088313800083163F0817
:101EBC00A03E84000008BD063F08013EF70000303C
:101ECC0003180130F800803AF90080307902031DC4
:101EDC00712F40087702031C752FFD15B92F83163F
:101EEC000313BF0AB92FFD18822F3D0883121A065F
:101EFC00031D292FFD14B92FFD1A8B2F83121A08DD
:101F0C000A3A031D292FFD16B92F83121A089A00BD
:101F1C00B92F0C1CB52FDC308E000B308F008316C4
:101F2C002E1CAC2F00302F02793003192E02031C0B
:101F3C00AE2F2A032B04031DAE2FDC278A15831624
:101F4C00AA01AB01DF278A158613AE2F83128617E1
:101F5C008316AE0A0319AF0A83120C10B92F8C0129
:101F6C008D01C0308B007C088A007B0884007A0EBF
:101F7C008300FE0E7E0E090083160313BE01C00102
:101F8C00BF01B001083030020318D32F3008A03E37
:101F9C00840083138001B00AC82FBD0156107D1038
:101FAC007D117D12FD11FD10FD120800831206102B
:101FBC0008003630F300F4017408F2007308F100E5
:101FCC004030F106F9278A150030F9278A15730875
:101FDC00F9278A150030F9278A157108F9278A150F
:101FEC000A30F9270800F00083120C1EFA2F700833
:041FFC009900080040
:04400E002EFFFCFF86
:00000001FF
