:040000008A110D282C
:10000800FE00030EF4000408F5000A08F6008A1141
:10001800192B8A11632C83160D300612861483124D
:10002800C600C60B15288316033003130616831261
:10003800C600C60B1D280030831203138618013032
:10004800C7008316061207218A11003A031DFF34E0
:10005800470808007E208A11923066208A113508E8
:1000680066208A1199208A117E208A119330662091
:100078008A1101306E208A11BA0001306E208A116F
:10008800B90000306E208A11BB0099287E208A11A1
:10009800903066208A11340866208A1199208A11C6
:1000A8007E208A11913066208A1101306E208A11D3
:1000B800B70001306E208A11B60000306E208A1118
:1000C800B80099288312C900C5208A11003A031D77
:1000D800FF340F28C90013218A11CA00CB014A0A2C
:1000E80003194B0A0319FF3449083C2183120313EF
:1000F8004A0808008316033086148312C500C50B0E
:10010800832883160D30031306168312C500C50B0A
:100118008B2883160D30031386108312C500C50B78
:100128009328831603130612080083160D3006124F
:100138008312C500C50B9E2883160D300313861045
:100148008312C500C50BA6288316033003130616B1
:100158008312C500C50BAE2883160D30031306168F
:100168008312C500C50BB6288316103003138614F6
:100178008312C500C50BBE286400831603138614BA
:100188000800C7000730C800831606128312470804
:10019800C600480AD1280310C60CFF3E031DCF280D
:1001A800461CDA28831603138614DD2883160313E6
:1001B800861083124708C600480AE4280310C60CB4
:1001C800FF3E031DE228461CEC2883168614EE2801
:1001D8008316861003308312C600C60BF1288316D7
:1001E8000313061607218A11003A031D01340D3046
:1001F800C600C60BFD288316031306128312C80314
:10020800C81B0034C8288312061A00340330C500FE
:10021800C50B0C2983120313061E01340034C701D1
:10022800C8018316103006128312C600C60B1A299D
:100238006400831603138614061607218A11003AF0
:10024800031DFF340D30C600C60B28298312003069
:1002580003130310C70D86180130C704831606124E
:1002680083120830C80A4802031C152947080800E9
:10027800C6008316061283124608031946298316F8
:10028800861048298316861403308312C500C50BCF
:100298004B2983160D30031306168312C500C50BB0
:1002A80053290800EC218A110038031D00344D3011
:1002B800C900CA014A084904031969290130C90259
:1002C8000030031CCA03CA025E29CC30B0218A114F
:1002D8004430B0210134EC218A110038031D8E29E5
:1002E8004D30C900CA014A0849040319822901305E
:1002F800C9020030031CCA03CA027729CC30B021D6
:100308008A11BE30B0218A1125228A11BD0025220A
:10031800BF000800BD01BF010800EC218A110038A8
:10032800031D08004D30C900CA014A0849040319D1
:10033800A2290130C902031CCA039929CC30B02173
:100348008A114E30B0218A110030B0218A11003054
:10035800B0218A117F30B029C500C601451CCE29BD
:10036800831605108312051000000000000000002D
:100378000000000083160530031305148312C7001C
:10038800C801480847040319E2290130C702031CC1
:10039800C803C52983160510831205300510C70048
:1003A800C801480847040319DE290130C702031CA5
:1003B800C803D529831605140000000083120830ED
:1003C80003130310C50CC60A460203180800B22915
:1003D80083160510831243300510C600C70147086D
:1003E80046040319FE290130C6020030031CC70366
:1003F800C702F3298316063005148312C600C70105
:100408004708460403190F2A0130C6020030031CAE
:10041800C703C702042A0518132AC501152AC501EE
:10042800C50A1F30C600C701470846040319232A16
:100438000130C6020030031CC703C702182A45084A
:100448000800C701C801C80A0310C70C83160510A5
:100458008312051000000000831603130514000022
:1004680000000000000000000000831203130518BC
:10047800C7170430C500C601460845040319492AB0
:100488000130C502031CC603402A0930C80A4802C5
:10049800031C292A47080800F808031D682A780859
:1004A800C2007A08FB002008A8002108A900220839
:1004B800AA002308AB002408AC002508AD002608D4
:1004C800AE002708AF0008007808113A031DB92AC2
:1004D8000614B52A0610B52A2008C50007300310EF
:1004E800C50DFF3E031D732A80304505C60034083C
:1004F8007F39972A2008C50007300310C50DFF3E35
:10050800031D812A80304505C60035087F39A42A95
:100518002008C5000C300310C50D0310C50D450596
:10052800C6003408F3394604AC2A2008C5000C304C
:100538000310C50D0310C50D4505C6003508F33970
:100548004604B42A03302005C5003408FC394504A4
:10055800B400B52A03302005C5003508FC39450428
:10056800B5007808C200FB0108007808123A0319A0
:100578006E2A7808133A0319702A7808143A03196E
:100588007E2A7808153A03198C2A7808163A03192E
:10059800992A7808173A0319A62A7808183A0319E5
:1005A800AE2A7808213A031DE42A7808C2000330ED
:1005B800FB003708A8003608A9003808AA00080078
:1005C8007808223A031DF32A7808C2000330FB009A
:1005D8003A08A8003908A9003B08AA0008007808CA
:1005E800233A031D002B7808C2000230FB003E08A6
:1005F800A8003C08A90008007808243A031DB52A79
:100608007808C2000830FB003708A8003608A9009F
:100618003808AA003A08AB003908AC003B08AD001E
:100628003E08AE003C08AF000800831203138C1E7E
:10063800822BF01A2C2B1A08403A031D292B8F23E2
:100648008A114030C000F016862B8F238A11862B22
:100658007018362B1A084406031D292B4408C006B7
:100668007014862B70193D2B1A08F800C0067015F7
:10067800862B701A4D2B1A08FA00C006FA08031DBB
:10068800472BF0154B2B09307A020318292B7016CB
:10069800862BF0196F2B7908203E84001A088313E3
:1006A80080007908203E84000008C0067908013ED1
:1006B800F100003003180130F200803AF300803076
:1006C8007302031D692B7A087102031C6D2BF01548
:1006D800862BF90A862BF018772B40081A06031D7B
:1006E800292BF014862B701B7F2B1A080A3A031D3E
:1006F800292B7017862B1A089A00862B8C018D01DE
:10070800C0308B0076088A0075088400740E830058
:10071800FE0E7E0E0900F801FA01F901F701083012
:10072800770203189E2B7708203E840083138001EC
:10073800F70A932B83120313C001F0127010701183
:100748007012F011F01070130800FF308316850046
:10075800F630860083128501860183169B01831279
:100768009F0183169F01831297017F3095009600A1
:10077800313090007F309200D730831692001930C4
:100788000615861699009030831298002430831637
:100798009800F030831294050B309404203094169E
:1007A800141683168C0083128C018D01C0308B00C7
:1007B8008A114B248A110C30C401B400B5008A1187
:1007C80091218A11981CEA2B18121816701FF52B04
:1007D8008A1150228A118A111C248A118A114B24E9
:1007E8008A11B20A0319B30AC3303302503003190D
:1007F8003202031CE62BB201B3018A114A208A1186
:1008080064308312C500C6018A1172248A118A11C4
:100818002E208A118A1156218A11013A031DE62BCE
:100828008A116F218A113F08BE003D08BC00E62BE3
:10083800440842067B06403AC100403045248A11EC
:10084800440845248A11420845248A117B08452416
:100858008A11C3017B0843020318402C4308283E31
:1008680084008313000845248A114308283E840025
:100878000008C106C30A2E2C410845248A110A30F3
:10088800452CC5000C1E462C450899000800F801A7
:10089800FA01F901F7010830770203185A2C770892
:1008A800203E840083138001F70A4F2CC001F01208
:1008B800701070117012F011F01070130800F00130
:1008C800F701F801F901FA01FB01831320308400D4
:1008D80045308A11802483018A11A92BB001B10106
:1008E80046083102031D7A2C450830020318080017
:1008F800B00A0319B10A742C64008001840A040642
:10090800031900340406812C061008000614080098
:020918000800D5
:04400E00EEFFFFFFC3
:00000001FF
