:040000008A110D282C
:10000800FE00030EFA000408FB000A08FC008A112F
:10001800CD2B8A11812DBE08031D27283E08C2005A
:100028004008C4002008C5002108C6002208C700EF
:100038002308C8002408C9002508CA002608CB00E0
:100048002708CC0008003E08113A031D7F28061433
:100058007B2806107B280614AE01AF01AA01AA0A64
:10006800AB017B282008D30007300310D30DFF3ED7
:10007800031D392880305305D40031087F395D28A5
:100088002008D30007300310D30DFF3E031D472877
:1000980080305305D40032087F396A282008D300FD
:1000A8000C300310D30D0310D30D5305D4003108C1
:1000B800F339540472282008D3000C300310D30DF0
:1000C8000310D30D5305D4003208F33954047A28A9
:1000D80003302005D3003108FC395304B1007B28D4
:1000E80003302005D3003208FC395304B2003E081F
:1000F800C200C40108003E08123A03192D283E0820
:10010800353A03192F283E08133A031936283E08B2
:10011800143A031944283E08153A031952283E0890
:10012800163A03195F283E08173A03196C283E0847
:10013800183A031974283E08213A031DAE283E08D0
:10014800C2000330C4003408C5003308C6003508AF
:10015800C70008003E08223A031DBD283E08C20019
:100168000330C4003708C5003608C6003808C70081
:1001780008003E08233A031DCA283E08C200023080
:10018800C4003B08C5003908C60008003E08243AE8
:10019800031DE3283E08C2000830C4003408C50027
:1001A8003308C6003508C7003708C8003608C90034
:1001B8003808CA003B08CB003908CC0008003E08C4
:1001C800313A031DF6282108CE0020085321831256
:1001D80003133E08C2000230C4002008C5002108ED
:1001E800C60008003E08323A031D04293E08C20032
:1001F8000230C4002008C50020087E21C60008007F
:100208003E08333A031D1A294008023A031D080024
:100218002008D5002108D600D000550824218A11CD
:10022800831203133E08C2004008F0283E08343AFF
:10023800031D7B283E08C2000630C40045306D29E6
:10024800D1005730CE00003053218A1100004830C9
:1002580083120313CE00013053218A11000053305A
:1002680083120313CE00023053218A110000453057
:1002780083120313CE00033053218A110000831226
:1002880003135108CE00043053218A110000831251
:1002980003135008CE000530532100000800CF009A
:1002A800831603178C185429831203134F08031756
:1002B8008D0003134E0803178C00831655308C13DA
:1002C8000C158D00AA308D008C148C1869290C111E
:1002D8000800D100D20152085107D000840052080A
:1002E8007E218A11831380000630D20A5202031835
:1002F80008006F29CE004E0803178D0083168C1353
:100308000C140C18852983120C080313CF0008005D
:1003180083160D30061286148312CF00CF0B922954
:1003280083160330031306168312CF00CF0B9A29C6
:1003380000308312031386180130D000831606128A
:1003480084228A11003A031DFF3450080800FB215B
:100358008A119230E3218A113208E3218A11162288
:100368008A11FB218A119330E3218A110130EB2194
:100378008A11B7000130EB218A11B6000030EB2159
:100388008A11B800162AFB218A119030E3218A11BC
:100398003108E3218A1116228A11FB218A11913032
:1003A800E3218A110130EB218A11B4000130EB21DD
:1003B8008A11B3000030EB218A11B500162A831286
:1003C800D20042228A11003A031DFF348C29D4003E
:1003D80090228A11D200D301520A0319530A031931
:1003E800FF345408B92283120313520808008316F5
:1003F800033086148312CE00CE0B002A83160D30EC
:10040800031306168312CE00CE0B082A83160D306E
:10041800031386108312CE00CE0B102A8316031303
:100428000612080083160D3006128312CE00CE0B7A
:100438001B2A83160D30031386108312CE00CE0BB1
:10044800232A83160330031306168312CE00CE0B1D
:100458002B2A83160D30031306168312CE00CE0BFB
:10046800332A83161030031386148312CE00CE0B62
:100478003B2A64008316031386140800D000073053
:10048800D1008316061283125008CF00510A4E2A53
:100498000310CF0CFF3E031D4C2A4F1C572A83160E
:1004A800031386145A2A83160313861083125008DE
:1004B800CF00510A612A0310CF0CFF3E031D5F2AAB
:1004C8004F1C692A831686146B2A831686100330FC
:1004D8008312CF00CF0B6E2A8316031306168422CD
:1004E8008A11003A031D01340D30CF00CF0B7A2A50
:1004F8008316031306128312D103D11B0034452A35
:100508008312061A00340330CE00CE0B892A8312D8
:100518000313061E01340034D001D10183161030B4
:1005280006128312CF00CF0B972A64008316031399
:100538008614061684228A11003A031DFF340D30F2
:10054800CF00CF0BA52A8312003003130310D00D60
:1005580086180130D0048316061283120830D10A97
:100568005102031C922A50080800CF008316061275
:1005780083124F080319C32A83168610C52A8316C7
:10058800861403308312CE00CE0BC82A83160D3092
:10059800031306168312CE00CE0BD02A0800692357
:1005A8008A110038031D00344D30D200D30153089E
:1005B80052040319E62A0130D2020030031CD30387
:1005C800D302DB2ACC302D238A1144302D23013469
:1005D80069238A110038031D0B2B4D30D200D3013B
:1005E800530852040319FF2A0130D2020030031CB9
:1005F800D303D302F42ACC302D238A11BE302D2305
:100608008A11A2238A11BA00A223BC000800BA01E9
:10061800BC01080069238A110038031D08004D3009
:10062800D200D3015308520403191F2B0130D20200
:10063800031CD303162BCC302D238A114E302D23C7
:100648008A1100302D238A1100302D238A117F3022
:100658002D2BCE00CF014E1C4B2B83160510831279
:1006680005100000000000000000000000008316D4
:100678000530031305148312D000D101510850042A
:1006880003195F2B0130D002031CD103422B8316C0
:100698000510831205300510D000D101510850040F
:1006A80003195B2B0130D002031CD103522B831694
:1006B8000514000000008312083003130310CE0C49
:1006C800CF0A4F02031808002F2B83160510831238
:1006D80043300510CF00D00150084F0403197B2B7D
:1006E8000130CF020030031CD003D002702B8316D8
:1006F800063005148312CF00D00150084F040319A7
:100708008C2B0130CF020030031CD003D002812B88
:100718000518902BCE01922BCE01CE0A1F30CF00A8
:10072800D00150084F040319A02B0130CF0200302C
:10073800031CD003D002952B4E080800D001D1012C
:10074800D10A0310D00C831605108312051000007F
:1007580000008316031305140000000000000000C9
:1007680000000000831203130518D0170430CE00D0
:10077800CF014F084E040319C62B0130CE02031CCB
:10078800CF03BD2B0930D10A5102031CA62B5008F8
:100798000800831203138C1E382C5B18E02B1A08F0
:1007A800403A031DDD2B65248A114030BD005B14DF
:1007B8005C2C65248A115C2C7D18EA2B1A084D06DE
:1007C800031DDD2B4D08BD067D145C2C7D19F12B16
:1007D8001A08BE00BD067D155C2C7D1A012C1A086E
:1007E800C000BD06C008031DFB2BFD15FF2B0930FB
:1007F80040020318DD2B7D165C2CFD19252C3F08C3
:10080800203E84001A08831380003F08203E84009D
:100818000008BD063F08013EF7000030031801300C
:10082800F800803AF90080307902031D1D2C400839
:100838007702031C212CFD155C2C83120313BF0ABD
:100848005C2CFD182D2C3D081A06031DDD2BFD140C
:100858005C2CFD1A352C1A080A3A031DDD2BFD16EF
:100868005C2C1A089A005C2C0C1C582CDC308E006E
:100878000B308F002E1C522C00302F0279300319B8
:100888002E02031C532C2A032B04031D532C061081
:10089800AA01AB017F248A118613532C8617AE0A4E
:1008A8000319AF0A0C105C2C8C018D01C0308B0031
:1008B8007C088A007B0884007A0E8300FE0E7E0E78
:1008C800090083120313BE01C001BF01B001083043
:1008D80030020318762C3008203E840083138001F0
:1008E800B00A6B2CBD015B107D107D117D12FD11CE
:1008F800FD10FD1208003630F300F4017408F20010
:100908007308F1004030F10699248A1100309924C7
:100918008A11730899248A11003099248A11710860
:1009280099248A110A3099240800F0000C1E9A2C88
:10093800700899000800FF3083168500F63086009D
:1009480083128501860183169B0183129F018316FA
:100958009F01831297017F309500960031309000F7
:100968007F309200D730831692001930061586160C
:100978009900903083129800243083169800F03044
:10098800831294050B3094042030941614168316A1
:100998008C0083128C018D01C0308B008A11482590
:1009A8008A110C30CD01B100B2008A110E238A11D0
:1009B80083168613831286138A1160258A11981C60
:1009C800E72C18121816FD1EF22C8A110F208A1116
:1009D8008A1119258A118A1148258A11AC0A031926
:1009E800AD0AC3302D02503003192C02031CE32C2E
:1009F800AC01AD018A11C7218A1164308312CE007F
:100A0800CF018A1173258A118A11AB218A118A11A3
:100A1800D3228A11013A031DE32C8A11EC228A1190
:100A28003C08BB003A08B900E32C4D0842064406CE
:100A3800403AC100403042258A114D0842258A11AA
:100A4800420842258A11440842258A11C3014408F4
:100A5800430203183D2D4308453E840083130008D4
:100A680042258A114308453E84000008C106C30A8E
:100A78002B2D410842258A110A30422DCE000C1E2A
:100A8800432D4E0899000800BE01C001BF01B00106
:100A9800083030020318572D3008203E8400831395
:100AA8008001B00A4C2DBD015B107D107D117D12B7
:100AB800FD11FD10FD120800901090161012DC3088
:100AC8008E000B308F000C108B170B171014831629
:100AD8000C148312AE01AF01AA01AB010800A801F2
:100AE800A9014F082902031D7B2D4E08280203186F
:100AF8000800A80A0319A90A752DFD01DB01831353
:100B0800203084004E308A118C2583018A119F2C55
:100B180064008001840A04060319003404068D2D3C
:0E0B2800061008000614080006100800080059
:04400E002EFFFCFF86
:00000001FF
