:040000008A110D282C
:10000800FE00030EF4000408F5000A08F6008A1141
:10001800E32B8A112D2DB808031D27283808BA00AC
:100028003908BB002008BC002108BD002208BE001A
:100038002308BF002408C0002508C1002608C20004
:100048002708C30008003808113A031D7828061449
:100058007428061074282008CB0007300310CB0D35
:10006800FF3E031D322880304B05CC002C087F3919
:1000780056282008CB0007300310CB0DFF3E031D88
:10008800402880304B05CC002D087F396328200894
:10009800CB000C300310CB0D0310CB0D4B05CC005F
:1000A8002C08F3394C046B282008CB000C300310C3
:1000B800CB0D0310CB0D4B05CC002D08F3394C04A8
:1000C800732803302005CB002C08FC394B04AC0006
:1000D800742803302005CB002D08FC394B04AD00F3
:1000E8003808BA00BB0108003808123A03192D284D
:1000F8003808133A03192F283808143A03193D28E9
:100108003808153A03194B283808163A031958289D
:100118003808173A031965283808183A03196D285A
:100128003808213A031DA3283808BA000330BB0059
:100138002F08BC002E08BD003008BE000800380893
:10014800223A031DB2283808BA000330BB0032082F
:10015800BC003108BD003308BE0008003808233A47
:10016800031DBF283808BA000230BB003608BC009F
:100178003408BD0008003808243A031DD828380878
:10018800BA000830BB002F08BC002E08BD0030089C
:10019800BE003208BF003108C0003308C10036086D
:1001A800C2003408C30008003808313A031DEB28A0
:1001B8002108C50020086921831203133808BA00F2
:1001C8000230BB002008BC002108BD000800380828
:1001D800323A031DF9283808BA000230BB0020085B
:1001E800BC0020089421BD0008003808333A031DDC
:1001F80021293908043A031D08002008CE002108E7
:10020800CD002208D0002308CF004E08C8004D08B2
:10021800C7005008CA004F08C9002B2183120313D6
:100228003808BA003908BB002008BC002108BD0006
:100238002208BE002308BF0008003808343A031D0E
:1002480074283808BA000830BB003C30832957307E
:10025800C500003069218A11000048308312031359
:10026800C500013069218A1100005330831203133D
:10027800C500023069218A1100004530831203133A
:10028800C500033069218A1100008312031348084E
:10029800C500043069218A1100008312031347083E
:1002A800C500053069218A110000831203134A082A
:1002B800C500063069218A1100008312031349081A
:1002C800C5000730692100000800C600831603171F
:1002D8008C186A2983120313460803178D00031329
:1002E800450803178C00831655308C130C158D00A8
:1002F800AA308D008C148C187F290C110800C800B6
:10030800C90149084807C7008400490894218A118F
:10031800831380000830C90A490203180800852998
:10032800C500450803178D0083168C130C140C1890
:100338009B2983120C080313C600080083160D308E
:10034800061286148312C600C60BA829831603302A
:10035800031306168312C600C60BB0290030831299
:10036800031386180130C700831606129A228A11D1
:10037800003A031DFF344708080011228A11923001
:10038800F9218A112D08F9218A112C228A111122AA
:100398008A119330F9218A11013001228A11B200A1
:1003A800013001228A11B100003001228A11B30004
:1003B8002C2A11228A119030F9218A112C08F9214E
:1003C8008A112C228A1111228A119130F9218A115D
:1003D800013001228A11AF00013001228A11AE00DA
:1003E800003001228A11B0002C2A8312C900582239
:1003F8008A11003A031DFF34A229C900A6228A11D6
:10040800CA00CB014A0A03194B0A0319FF344908E9
:10041800CF22831203134A08080083160330861478
:100428008312C500C50B162A83160D300313061652
:100438008312C500C50B1E2A83160D3003138610C0
:100448008312C500C50B262A83160313061208005B
:1004580083160D3006128312C500C50B312A831688
:100468000D30031386108312C500C50B392A831675
:100478000330031306168312C500C50B412A8316E1
:100488000D30031306168312C500C50B492A8316BF
:100498001030031386148312C500C50B512A64005B
:1004A8008316031386140800C7000730C800831694
:1004B800061283124708C600480A642A0310C60CAD
:1004C800FF3E031D622A461C6D2A831603138614F9
:1004D800702A83160313861083124708C600480A39
:1004E800772A0310C60CFF3E031D752A461C7F2A77
:1004F80083168614812A8316861003308312C60059
:10050800C60B842A8316031306169A228A11003A08
:10051800031D01340D30C600C60B902A8316031341
:1005280006128312C803C81B00345B2A8312061AFA
:1005380000340330C500C50B9F2A83120313061E1F
:1005480001340034C701C801831610300612831223
:10055800C600C60BAD2A640083160313861406165C
:100568009A228A11003A031DFF340D30C600C60BCB
:10057800BB2A8312003003130310C70D86180130FD
:10058800C7048316061283120830C80A4802031CDF
:10059800A82A47080800C6008316061283124608D0
:1005A8000319D92A83168610DB2A8316861403308A
:1005B8008312C500C50BDE2A83160D3003130616F9
:1005C8008312C500C50BE62A08007F238A1100386C
:1005D800031D00344D30C900CA014A0849040319F3
:1005E800FC2A0130C9020030031CCA03CA02F12ADE
:1005F800CC3043238A114430432301347F238A11AA
:100608000038031D212B4D30C900CA014A0849048E
:100618000319152B0130C9020030031CCA03CA0292
:100628000A2BCC3043238A11BE3043238A11B823C6
:100638008A11B500B823B7000800B501B701080052
:100648007F238A110038031D08004D30C900CA01F4
:100658004A0849040319352B0130C902031CCA038F
:100668002C2BCC3043238A114E3043238A1100307F
:1006780043238A11003043238A117F30432BC5005E
:10068800C601451C612B8316051083120510000056
:10069800000000000000000000008316053003136E
:1006A80005148312C700C801480847040319752BAD
:1006B8000130C702031CC803582B83160510831288
:1006C80005300510C700C801480847040319712BF5
:1006D8000130C702031CC803682B831605140000E9
:1006E80000008312083003130310C50CC60A460223
:1006F80003180800452B8316051083124330051094
:10070800C600C701470846040319912B0130C602E9
:100718000030031CC703C702862B83160630051456
:100728008312C600C701470846040319A22B0130EB
:10073800C6020030031CC703C702972B0518A62B57
:10074800C501A82BC501C50A1F30C600C701470847
:1007580046040319B62B0130C6020030031CC70338
:10076800C702AB2B45080800C701C801C80A031017
:10077800C70C8316051083120510000000008316AD
:100788000313051400000000000000000000000032
:10079800831203130518C7170430C500C60146089D
:1007A80045040319DC2B0130C502031CC603D32BF7
:1007B8000930C80A4802031CBC2B470808008312EA
:1007C80003138C1E4C2CF01AF62B1A08403A031D02
:1007D800F32B59248A114030F800F016502C592474
:1007E8008A11502C7018002C1A084406031DF32B8C
:1007F8004408F8067014502C7019072C1A08B80011
:10080800F8067015502C701A172C1A08B900F8063B
:10081800B908031D112CF015152C093039020318DD
:10082800F32B7016502CF019392C7908203E8400CF
:100838001A08831380007908203E84000008F8060F
:100848007908013EF100003003180130F200803AC7
:10085800F30080307302031D332C39087102031C26
:10086800372CF015502CF90A502CF018412C780828
:100878001A06031DF32BF014502C701B492C1A0870
:100888000A3A031DF32B7017502C1A089A00502CA3
:100898008C018D01C0308B0076088A0075088400B1
:1008A800740E8300FE0E7E0E090083120313B80136
:1008B800B901F901F7010830770203186A2C7708A3
:1008C800203E840083138001F70A5F2CF801F012A0
:1008D800701070117012F011F01070130800FF30D2
:1008E80083168500F63086008312850186018316FB
:1008F8009B0183129F0183169F01831297017F300A
:1009080095009600313090007F309200D7308316E2
:1009180092001930061586169900903083129800B7
:10092800243083169800F030831294050B30940419
:1009380020309416141683168C0083128C018D01B6
:10094800C0308B008A1115258A110C30C401AC0007
:10095800AD008A1124238A11981CB42C1812181679
:10096800701FBF2C8A110F208A118A11E6248A1160
:100978008A1115258A11AA0A0319AB0AC3302B025A
:10098800503003192A02031CB02CAA01AB018A11AA
:10099800DD218A1164308312C500C6018A113C2505
:1009A8008A118A11C1218A118A11E9228A11013A10
:1009B800031DB02C8A1102238A113708B6003508A6
:1009C800B400B02C44083A063B06403AFA004030DE
:1009D8000F258A1144080F258A113A080F258A1114
:1009E8003B080F258A11FB013B087B0203180A2DDF
:1009F8007B083C3E8400831300080F258A117B087E
:100A08003C3E84000008FA06FB0AF82C7A080F25F9
:100A18008A110A300F2DC5000C1E102D45089900AB
:100A28000800B801B901F901F70108307702031885
:100A3800242D7708203E840083138001F70A192D9E
:100A4800F801F012701070117012F011F01070139C
:100A58000800F001F701F801F901FA01FB0183131D
:100A68002030840045308A114A2583018A11732C6D
:100A7800A801A90146082902031D442D450828029A
:100A880003180800A80A0319A90A3E2D640080016A
:100A9800840A04060319003404064B2D06100800C6
:060AA8000614080008001E
:04400E002EFFFCFF86
:00000001FF
